:020000040800F2
:10000000C0870020A10100089F1E0008291B0008CE
:100010009D1E0008710300081B210008000000005D
:10002000000000000000000000000000A31E000807
:100030007303000800000000A11E0008A51E0008B0
:10004000BB010008BB010008BB010008BB010008A0
:10005000BB010008BB010008BB010008BB01000890
:10006000BB010008BB010008BB010008BB01000880
:10007000BB010008BB010008BB010008BB01000870
:10008000BB010008BB010008BB010008BB01000860
:10009000BB010008BB010008BB010008BB01000850
:1000A000BB010008BB010008BB010008BB01000840
:1000B000BB010008BB010008BB010008BB01000830
:1000C000BB010008BB010008BB010008BB01000820
:1000D000BB010008BB010008BB010008BB01000810
:1000E000BB010008BB010008BB010008BB01000800
:1000F000BB010008BB010008BB010008BB010008F0
:10010000BB010008BB010008BB010008BB010008DF
:10011000BB010008BB010008BB010008BB010008CF
:10012000BB010008BB010008BB010008BB010008BF
:10013000BB0100080D040008BB010008BB0100085A
:10014000BB010008BB010008BB010008BB0100089F
:10015000BB010008BB010008BB010008BB0100088F
:10016000BB010008BB010008BB010008BB0100087F
:10017000BB010008BB010008BB0100080000000033
:10018000BB010008BB010008DFF810D000F0DEF86A
:100190000048004755490008AFF30080C0870020A1
:1001A0000648804706480047FEE7FEE7FEE7FEE711
:1001B000FEE7FEE7FEE7FEE7FEE7FEE73D1F00087D
:1001C000890100082DE9F05F0546002092469B4614
:1001D00088460646814640241BE02846414647465D
:1001E000224600F0A2F853465A46C01A914110D355
:1001F00011461846224600F089F82D1A67EB0108CF
:100200004F4622460120002100F080F817EB00093C
:100210004E41201EA4F10104DFDC484631462A4647
:100220004346BDE8F09F00000048704774D40008C2
:100230000649074A0868504343F2390210440860EF
:10024000400870470149086070470000080100201D
:100250006D4EC64110B5431A934209D283188818CF
:1002600003E010F8011D03F8011D521EF9D210BD64
:1002700040EA01039B0703D009E008C9121F08C028
:10028000042AFAD203E011F8013B00F8013B521EA8
:10029000F9D210BDD2B201E000F8012B491EFBD209
:1002A00070470022F6E710B513460A460446194681
:1002B000FFF7F0FF204610BD421C10F8011B00297B
:1002C000FBD1801A704730B504460020034600E099
:1002D0005B1C934203D2E05CCD5C401BF8D030BD88
:1002E00030B50B46014600202022012409E021FA06
:1002F00002F59D4205D303FA02F5491B04FA02F503
:100300002844151EA2F10102F1DC30BD202A04DBD5
:10031000203A00FA02F1002070479140C2F1200318
:1003200020FA03F3194390407047202A04DB203A57
:1003300021FA02F00021704721FA02F3D040C2F105
:10034000200291400843194670470000064C074DB3
:1003500006E0E06840F0010394E807009847103495
:10036000AC42F6D3FFF714FF8CD50008ACD50008DB
:10037000FEE77047F0B500231A464FF0004500BF76
:10038000016903EB830401EBC4010A604A608A60DF
:10039000CA600A620D604A62466946F480464E6051
:1003A0004E6826F000464E6000EB8306032BB164D6
:1003B00005D22827066907EBC404344400E0046929
:1003C000CC605B1C042BDBD3C26502668266C2660E
:1003D00082650169006800F58050C160F0BD38B5E4
:1003E0000446006800F58050816941F48011816104
:1003F000206800F5805080690090012000F072FABA
:100400002068009900F58050816138BD014800F0F6
:10041000F1BA00001C4C002070B5A4B001250024E6
:1004200006468DF828408DF804501494A8038DF8E2
:10043000564005908DF8105002948DF80E508DF8AE
:100440005440C0108DF811508DF81F408DF8204099
:1004500006908DF81E508DF80F4009948DF81C40C1
:1004600012948DF84C408DF855406946304600F0A6
:1004700069F98DF881508DF880408DF8824028040C
:100480001B908DF8685080011F908DF870508DF88A
:10049000885040128DF871501E941D908DF8725046
:1004A000239421948DF8895019A93046199400F0AD
:1004B000E9F824B070BD0020704700F031BF0000A3
:1004C00010B5024800F0FCFC002010BD1C4C0020C0
:1004D00013460A4610B50146034800F079FC00288F
:1004E00001D04FF0FF3010BD1C4C002013460A46CF
:1004F00010B50146034800F0E1FD002801D04FF09F
:10050000FF3010BD1C4C00202DE9F043836A1830E9
:10051000914650F823208D681C4617680026002F4E
:100520006BDB00EB83077F69BFBBD5F800C00127F9
:10053000C2F808C0D2F804C0D5F804806FF30C0CE0
:100540004CEA080CC2F804C091F800C05FEACC7C09
:1005500009D0D2F800C0D1F814802CF4400C4CEA39
:10056000080CC2F800C091F800C05FEA8C6C09D595
:10057000D2F800C0D1F810802CF0406C4CEA080C86
:10058000C2F800C00978490703D5116841F080011D
:100590001160116841F0805148E02EE0116821F0AF
:1005A000005111601168B9F1000F02D041F0804193
:1005B00001E021F0804111605B1C042B00D31B1F64
:1005C00050F823201168002903DB00EB83014969FF
:1005D000B1B150F8242000210DE000BFBFF35F8FC0
:1005E000136823F000431360641C042C00D3241F01
:1005F000491C50F82420B942F0D30220BDE8F08312
:10060000116821F080511160AD68296891605168CE
:10061000D5F804C06FF30C0141EA0C015160761C5F
:100620007F1CBFF35F8F116841F000411160A96822
:100630000029B3D11168B9F1000F02D041F0804117
:1006400001E021F080411160116841F0005111601A
:1006500050F82410BFF35F8F0A6842F000420A602E
:1006600000EB8302416A5161EFF31081012282F3B2
:1006700010880361826A761C324481F3108882629A
:100680000020BBE770B50C460168054601F58051B6
:1006900088692B4A1040227BEAB30022637B9206D2
:1006A00042EA4362637FBBB35FF0000342EA035256
:1006B000A37B42EA435263691A43237F42EAC3128F
:1006C000A37F42EA8312236A1A4394F8243042EA51
:1006D000830202438A61286800F580508669012000
:1006E00000F000F9286800F580508661A169A068D3
:1006F00022790843216941EA4261084394F82510B0
:1007000040EAC110A16A40EA81002168084340F430
:100710000001286801E00FE010E000F58050016062
:10072000286800F580500468012000F0DBF8286894
:1007300000F58050046070BD0122AFE70123B5E7EA
:10074000233FDEF870B5026805460C4610683C4948
:10075000A37B0840A16841EA4361237C002B64D05D
:100760000023667CDB05002E61D0002643EA865319
:100770001943E37F41EA034163691943A37FEBB364
:100780005FF0000341EA4331237F41EA0331A3696B
:100790001943237941EA832194F820307BB3002365
:1007A00041EA4321E37B41EAC311636A194394F8A8
:1007B000283041EA031101431160286806680120CE
:1007C00000F090F8286806602A6890694FF6417139
:1007D0000840A36C216D41EA034194F84C3063B3A7
:1007E000002394F85560DB01012E00D0002643EA77
:1007F000C603194394F85630012B01E019E01AE0C2
:1008000000D0002341EA830194F85430012B00D03A
:10081000002341EA43010143916128688469012072
:1008200000F060F82868846170BD012399E7012613
:100830009CE70123A6E70123B2E70123D1E70000EB
:100840000F8120FD2DE9F843044600200090A56E9D
:100850004FF0010804EB8500E76E866C1EE0306AFD
:1008600030B9684600F0E6FA009880B33062B060B4
:10087000B8F1000F12D0A06D002860692BD040F4B1
:1008800080407060306840F0004030606D1C042D86
:1008900000D32D1F04EB85007F1E866C17B1B8F1C5
:1008A000000FDCD1E06EB8420FD0E81C00F003006E
:1008B000BFF35F8F216900EB800001EBC00120686E
:1008C00000F580508160C4E91A57BDE8F883FFE75E
:1008D0004FF00008E2E701490843D2E700400080FA
:1008E00072B6FEE770B5044600F01AFD0546601CBE
:1008F00002D004480078044400F012FD401BA042DE
:10090000FAD370BD0C0000207047002970D0026837
:100910001268C2F3001281F828200268126802F0FF
:1009200060024A620268126842F34022521C81F857
:10093000202002681268C2F30042CA770268126877
:1009400042F34032521C8A7702681268C2F30032C6
:100950000A770268126802F400628A61026812680B
:1009600002F480424A610268126842F38052521CCB
:100970004A740268126842F3C052521C0A74026838
:100980001268C2F3C012CA730268126802F46022CD
:100990008A6002681268C2F380220A7102681268D3
:1009A000C2F340628A7302689269C2F3400281F81E
:1009B00054200268926942F3C012521C81F84C2004
:1009C0000268926902F030020A6502689269120CAC
:1009D0008A6402689269C2F3800281F85620006836
:1009E0008069C0F3C00081F8550000207047FFE720
:1009F0000120FBE72DE9F0470446006850F8387FF6
:100A0000D0F8DC5FD0F8E46FDFF8B490D9F800805C
:100A100000F6C870690606D5710604D529494161FA
:100A2000204600F02BFA05EA0600C00708D020682F
:100A30004FF0011100F580504161204600F03CFB71
:100A4000280423D5300421D5D4F8880040F00800CC
:100A5000C4F88800A804206800F580500CD54169CE
:100A6000194A1140C4F88C10C16921F4C031C16128
:100A7000E020C4F8840006E0426948F280610A4040
:100A8000C4F88C2041612046FFF73EFF38070BD5A4
:100A90002068C06A00F06000C4F89400204600F0AE
:100AA00023F90020C4F894005FEA083006D54FF41B
:100AB0000021C9F80010204600F0FFFABDE8F087D9
:100AC000143C01404000010000207E00F8B5040005
:100AD00003D0D4F8840010B107E00120F8BD202035
:100AE000C4F88400204600F093F8454800250168CA
:100AF00041F480410160006800F48040009041486A
:100B0000016821F4000101600168A26811430160DD
:100B10000068206800F58050016841F00101016023
:100B200000F0FEFB06464FF4FA770BE000F0F8FB0E
:100B3000801BB84206D90420C4F88800E020C4F81D
:100B40008400CAE7206800F580500068C007EDD136
:100B50002046FFF761FC0021E06801EB810200EB19
:100B6000C200056045608560C56004EB8103986143
:100B7000036843F480130360032905D22826E36841
:100B800006EBC2021A4400E0E268C260026842F466
:100B900040020260491C0429DED3A5622068E16896
:100BA00000F5805001612046FFF7E4FB6068164ABB
:100BB000818811640178C37841EA036183784078C1
:100BC0001B0443EA0020014351642068C16B41F4D7
:100BD0000271C1632068D0F80C110C4A1143C0F8AF
:100BE0000C112068D0F8101141F40311C0F8101155
:100BF000C4F888501020C4F884000020F8BD00001C
:100C00004438024004380140008002406000020085
:100C1000F0B587B0044614216846FFF742FB2D4922
:100C20002068884253D12C480024016841F00071AB
:100C30000160016801F000710591016841F0806177
:100C40000160016801F080610591016841F0006177
:100C50000160016801F000610591016841F0040143
:100C60000160016801F004010591016841F0010192
:100C70000160016801F001010591016841F0020184
:100C800001600068022500F0020005903220CDE9E5
:100C9000000502AA03260B2782E8D00069460F4808
:100CA00000F038FA8620CDE9000502AA694682E8FC
:100CB000D0000B4800F02EFA4FF46050CDE900054B
:100CC00002AA694682E8D000064800F023FA07B07D
:100CD000F0BD0000008002403038024000080240B1
:100CE000000002400004024070472DE9F84F4FF029
:100CF00000075FEA01090446B84604D0D4F884002E
:100D000040285AD105E054F8880F40F001002060D7
:100D100053E0E66D4FF0000B04EB8600856CE06E4F
:100D2000C0F1040A36E02868C00503D5E869A06769
:100D3000A86960672868800501D4E06F10B328684F
:100D4000800503D5C4F860B0C4F864B02868C0F367
:100D50000D4000902868C00503D528684FF00108B1
:100D60002067AA682A6204F18001081F009B00F036
:100D700086F8206E401C2066616E0098084460660C
:100D8000C5F820B0761C042E00D3361F04EB860075
:100D90007F1C856C2868002804DB574502D2B8F117
:100DA000000FC0D0E06EC019E06602D02046FFF709
:100DB00049FDE665B8F1010F02D00120BDE8F88FCA
:100DC000E16FC9F800100020C4F87CB0F6E700001D
:100DD0002DE9F041984603680546186900F01C04A7
:100DE0004FF6FF7000EAC1204FF4F861204301EA9A
:100DF0008211014321F0020040F001041C6100F067
:100E00008FFA06464FF480370AE000BF00F088FAF8
:100E1000801BB84202D30120BDE8F0812868046934
:100E2000E007F3D12868406981B20020C8F80010BB
:100E3000F2E700001CB504460D4804F063FA030015
:100E40000FD003F1200020600A4818614FF4C06100
:100E50002068CDE9000100214122084604F0ECFFA2
:100E60001CBD054901200870002020601CBD000049
:100E7000D8D200089D6400081C000020704710B5FF
:100E8000002442F8204D1481538104681CB10C6881
:100E900022600A6004E00260FBE7018919440181D5
:100EA00000680028F9D110BD10B519B1D0F8842020
:100EB000102A01D0012010BDFFF744FC002010BD16
:100EC00070B505460068006920F01C0400F054FB72
:100ED0000C49884202D244F0080410E00A498842D2
:100EE00002D244F00C040AE00849884207D30849BA
:100EF000884202D244F0040401E044F0100428685F
:100F0000046170BDC00E16020087930300E1F50571
:100F100080D1F00870B50446D0F88400102801D0C4
:100F2000012070BD2020C4F884000420E066204623
:100F3000FFF788FC2068016841F008010160206823
:100F400005680120FFF7CEFC206805602068016875
:100F500041F004010160206805680120FFF7C2FC30
:100F6000206805602046FFF73AFA206800F58050B7
:100F7000816941F400518161206800F580508169E8
:100F800041F0020181614020C4F88400002070BD5E
:100F900070B50446D0F88400402801D0012070BD0F
:100FA0002020C4F88400206800F58050816921F475
:100FB00000518161206800F58050816921F00201B3
:100FC00081612068016821F00401016020680568E2
:100FD0000120FFF787FC206805602046FFF7FFF936
:100FE0002068016821F0080101602068056801207F
:100FF000FFF778FC206805601020C4F8840000200A
:1010000070BD2DE9F0411546044621B1D4F88400A5
:10101000402805D04EE054F8880F40F0010008E069
:1010200000222046FFF770FA28B154F8880F40F0EC
:10103000020020603EE0BFF34F8FA06A04EB800106
:10104000401C8E69A062042801D3001FA06204EB3B
:1010500080008169206800F58050416000F060F9EF
:10106000074619E0206800F58050406980040BD5E0
:1010700054F8880F40F00800206054F8880C00F500
:1010800080504069606015E0681C05D000F048F9A8
:10109000C01BA84206D82DB130680028E2DB002032
:1010A000BDE8F08154F8880F40F0040020604FF054
:1010B000405030600120F3E7704770472DE9F04160
:1010C00006680546306900F01C044FF6FF7000EA20
:1010D000C1204FF4F861204301EA8211014398B224
:1010E00041F0030470612868046100F019F90646B4
:1010F0004FF480370AE000BF00F012F9801BB842BD
:1011000002D30120BDE8F08128680469E007F3D12B
:10111000F8E700002DE9F84FDFF8BCA10022012517
:1011200003264FF00F090AF1040BAAF1040E00BFC9
:101130000B6805FA02F42340A34270D10F7907F03F
:101140000307012F01D0022F16D187684FEA42080A
:1011500006FA08FC27EA0C07D1F80CC00CFA08FCC8
:101160004CEA070CC0F808C04768A7430C79C4F3E1
:10117000001494403C4344600C79E443A4070AD033
:10118000C4684FEA420C06FA0CF7BC438F6807FAB2
:101190000CF72743C7600C7904F00304022C12D12A
:1011A000D40800EB840CDCF820405707FF0E09FA46
:1011B00007F824EA0804D1F8108008FA07F848EA8A
:1011C0000408CCF8208004684FEA420C06FA0CF7B9
:1011D000BC430F7907F0030707FA0CF727430760B2
:1011E0004C6814F4403F70D03C4C276847F480476B
:1011F0002760246822F0030704F480440094384CEC
:1012000007EB040CDCF8084897074FEA177809FA4F
:1012100008F7BC43334FB84202D1002724E054E022
:10122000314FB84201D101271EE0304FB84201D101
:10123000022719E02E4FB84201D1032714E02D4FA9
:10124000B84201D104270FE02B4FB84201D1052746
:101250000AE02A4FB84201D1062705E0284FB842DC
:1012600001D1072700E0082707FA08F72743CCF841
:101270000878DAF800405746D1F804C09C435FEA8A
:10128000CC2C00D51C433C60DBF800405F46D1F815
:1012900004C09C435FEA8C2C00D51C433C60DEF804
:1012A00000407746D1F804C09C435FEA8C3C00D5EF
:1012B0001C433C60084F083F3C68D1F804C09C4385
:1012C0005FEACC3C00D51C433C60521C102AFFF462
:1012D0002FAFBDE8F88F0000083C014044380240C1
:1012E00000300140000002400004024000080240BB
:1012F000000C02400010024000140240001802409E
:10130000001C0240426921EA02030A4043EA02410A
:10131000816170470AB1816170470904FBE70000F1
:1013200001488068704700000C0000200248816876
:1013300002781144816070470C0000200B4810B502
:10134000016841F400710160016841F4806101604D
:10135000016841F480710160032000F061F80F2002
:1013600000F006F800F024F8002010BD003C024018
:1013700070B50D4D04464FF47A712878B1FBF0F04A
:101380000A490968B1FBF0F000F002FB48B9102CE3
:1013900007D200222146501E00F022F800206C6087
:1013A00070BD012070BD00000C000020180000205E
:1013B0000A4808B5016841F480410160006800F402
:1013C000804000900548001F016841F08051016095
:1013D000006800F08050009008BD000044380240D2
:1013E000F0B40E4B1B680C46C3F30223C3F1070590
:1013F000042D00D90425191D072901D2002300E07E
:10140000DB1E012606FA05F1491E214099409E4047
:10141000761E16403143F0BC00F0AABE0CED00E091
:10142000064900F0070208684FF6FF03184040EA3B
:101430000220034A10430860704700000CED00E0F2
:101440000000FA052DE9F0470E46050065D0DFF8EB
:101450001481D8F80000F7B200F00700B04207D2BC
:1014600088F80070D8F8000000F00700B04254D1AE
:1014700028683D4C810712D5400703D5206840F409
:10148000E05020602878000703D5206840F46040D1
:1014900020602068A96820F0F000084320602878C8
:1014A000C0072DD0304968680839012812D00228B9
:1014B00013D0032811D00968890700292DDA216883
:1014C00021F0030101432160FFF72AFF814641F229
:1014D000883A0EE009688903EFE709688901ECE7BB
:1014E000FFF71EFFA0EB0901514502D90320BDE81B
:1014F000F0872068696800F00C00B0EB810FEFD135
:10150000D8F80010404601F00701B14207D9077032
:10151000006800F00700B04201D00120E7E728781A
:10152000400705D52068E96820F4E05008432060B2
:101530002878000706D52068296920F4604040EA31
:10154000C100206000F03EF82168084AC1F3031191
:10155000515CC8400649086006480068FFF708FF6C
:101560000020C4E7003C024008380240C0D2000816
:10157000180000201000002001480068704700009B
:10158000180000200448054900680968044AC1F3AE
:101590008221515CC8407047180000200838024082
:1015A000D0D200080448054900680968044AC1F31C
:1015B0004231515CC8407047180000200838024092
:1015C000D0D20008154810B5006810F00C0214487D
:1015D00013D04110042A0FD0082A0ED10F4C241F1B
:1015E0002268236802F03F025B0207D52068C0F33F
:1015F0008810A0FB010106E0084610BD2168C1F378
:101600008811A1FB00010023FEF7DCFD2168C1F376
:101610000141491C4900B0FBF1F010BD08380240FF
:101620000024F4002DE9F84F04006ED02078DFF894
:101630004C93C007A9F104054AD009F104000168E0
:10164000C1F38101012908D00068C0F3810002289C
:101650000AD1D9F80000400206D52868800337D5A2
:1016600060680028E1D033E06068B0F5803F10D0BA
:10167000B0F5A02F286810D020F4803028602868AA
:1016800020F4802028606068A8B1FFF749FE064674
:101690000DE0286840F48030F4E740F480202860B2
:1016A000F7E700BFFFF73CFE801B642873D828686B
:1016B0008003F7D50CE0FFF733FE064605E000BFD8
:1016C000FFF72EFE801B6428F0D828688003F7D42B
:1016D0002078DFF8AC8280074FF0000A3ED5A7489B
:1016E000001D016811F00C0F08D00068C0F38100E4
:1016F00002280BD1D9F80000400207D428688007DF
:1017000016D5E068012800D112E033E1E068B8B1F5
:101710000120C8F80000FFF703FE064605E000BF01
:10172000FFF7FEFD801B0228C0D828688007F7D588
:101730002868216920F0F80040EAC10028600DE027
:10174000C8F800A0FFF7ECFD064604E0FFF7E8FD4F
:10175000801B02281FD828688007F7D4207800074C
:1017600022D5864F87486169703771B101210160C8
:10177000FFF7D6FD064604E0FFF7D2FD801B0228E6
:1017800009D838688007F7D50EE0C0F800A0FFF749
:10179000C7FD064605E082E0FFF7C2FD801B022878
:1017A0007DD838688007F7D42078400768D5DFF8FF
:1017B000CCB100270BF13C0BDBF80000C0000BD4D0
:1017C000DBF8001041F08051CBF80010DBF800008E
:1017D000012700F0805000906B4E3068C00510D497
:1017E000306840F480703060FFF79AFD009005E0AB
:1017F000FFF796FD0099401A022850D83068C005BE
:10180000F6D55E4EA0686C3601280FD005283068EA
:1018100010D020F001003060306820F0040030600B
:10182000A068B8B1FFF77CFD00900FE0306840F091
:101830000100F4E740F004003060F7E7FFF770FDC7
:101840000099411A41F28830814266D83068800799
:10185000F4D50EE0FFF764FD009007E0FFF760FDB0
:101860000099411A41F28830814256D83068800789
:10187000F4D42FB1DBF8001021F08051CBF8001028
:10188000A069C8B33D49091D0968C1F38101022956
:101890004AD00228504607D0C8F8600000E03CE07B
:1018A000FFF73EFD04463BE04746C8F86000FFF7FF
:1018B00037FD064605E000BFFFF732FD801B02281A
:1018C0002BD828688001F7D4D4E907010843A16A1E
:1018D0002E4A490802EB0141626A41EA821108433B
:1018E00094F82C1040EA0161C9F800100120386614
:1018F000FFF716FD044606E03EE000BFFFF710FDCF
:10190000001B022809D828688001F7D534E000BF01
:10191000FFF706FD001B022802D90320BDE8F88F5F
:1019200028688001F4D427E00128F7D0D9F8000016
:10193000E26900F4800191421CD1226A00F03F016B
:10194000914217D147F6C071626A0140B1EB821F24
:1019500010D1A26A4FF0FF3300F4403103EB520282
:10196000B1EB024F06D194F82C1000F07060B0EB90
:10197000016F01D00120D1E70020CFE704380240F9
:1019800000004742800E4742007000400000FFFF09
:1019900010B5401EB0F1807F01D3012010BD4FF083
:1019A000E02460610F21601700F0E2FB0020A061DD
:1019B00007202061002010BD70B5040004D094F809
:1019C0004100002510B106E0012070BD84F84050B0
:1019D000204600F023F8242084F841002068C168E4
:1019E00021F40051C160204600F0D8FA2068016956
:1019F00021F4904101612068416921F02A0141618F
:101A00002068C16841F40051C1606564202084F8F9
:101A1000410084F842006563002070BD10B586B0B7
:101A2000044614216846FEF73CFC144920688842AD
:101A300021D113480021026842F0100202600068C0
:101A400000F0100005900E481438026842F00102C0
:101A50000260006800F0010005904FF4C060009043
:101A60000220CDE90101032003900720049069467C
:101A70000448FFF74FFB06B010BD00000010014006
:101A800044380240000002402DE9F843044690F833
:101A90004100984616460D46202802D00220BDE897
:101AA000F88385B17EB100206064212084F8410074
:101AB000FFF736FCA6848146E684A0682027B0F5AF
:101AC000805F02D003E00120E9E7206910B12E46D3
:101AD00000250EE000260CE08021204600F0E4FA0C
:101AE000A8B9C6B116F8010B21684860E08C401E09
:101AF000E084E08C4B464FF00002CDF800800028D7
:101B0000EAD14FF04001204600F0CEFA40B184F80F
:101B100041700320C3E735F8020BC0F30800E3E788
:101B200084F841700020BAE7FEE738B5044600208B
:101B3000009063696A460121206898476FF00405A8
:101B4000002825DB63696A46012120689847002840
:101B50001EDB0098400701D4012038BD63696A4646
:101B6000002120689847002812DB0098C10408D49F
:101B70004FF4045181431CD081041CD4C0051CD4F3
:101B800015E063696A461F2120689847002801DA3A
:101B9000284638BD0098C10401D4062038BDC0F3E2
:101BA0008200062805D0022805D0052805D005208A
:101BB00038BD022038BD032038BD042038BDF8B53B
:101BC00005460020044606460090686808BBA868E1
:101BD00000B1804720206FF0040728606B696A46D7
:101BE000122120469847002801DA3E4609E0009875
:101BF00000F01F00A04204D100262C601F2C06D844
:101C000009E0641C1F2CE9D92C681F2C02D96FF045
:101C1000020602E00EB9012068603046F8BD88B1C6
:101C2000CA687AB18A686AB10A695AB10A68826078
:101C30004A68C260CA6842618A6802610969816152
:101C4000002070474FF0FF30704700002DE9F04151
:101C500086B014216846FEF724FB2648002501685B
:101C600041F080010160016801F080010591016887
:101C700041F004010160016801F00401059101686F
:101C800041F001010160016801F001010591016865
:101C900041F002010160016801F002010591016853
:101CA00041F0100101600068134F00F01000059032
:101CB000002204213846FFF72DFB0122DFF83C808B
:101CC000160331464046FFF725FB042001248DE82A
:101CD0003100694638460395FFF71CFA0320CDE929
:101CE0000240CDE9006469464046FFF713FA06B0AA
:101CF000BDE8F0813038024000040240001002408C
:101D0000FEB5454CC023A822237062700120A0704C
:101D10000521E170251DFF2129706970A970002738
:101D20002E1DEF7033707270B070F07002F002FE12
:101D3000208841BA0A04A17842EA0123E27844BA31
:101D40002404134344EA01241B06A4B243EA0423F7
:101D500044BA40BA000440EA0120E4B243EA042352
:101D60001043A5F1100143EA10600860288841BAC9
:101D70000A04A97844BA42EA0123EA782404134306
:101D800044EA01241B06A4B243EA042344BA40BA3D
:101D9000000440EA0120E4B243EA04231043A5F121
:101DA0000C0143EA10600860308841BA0A04B17837
:101DB00044BA42EA0123F2782404134344EA01249A
:101DC0001B06A4B243EA042344BA40BA000440EA22
:101DD0000120E4B243EA0423104343EA1060A5F172
:101DE0000801A5F1080308600C480D490097CDE9EA
:101DF00001101A1F111F0B4803F0CAFA094803F01B
:101E0000E1FC084803F0F2FD03B00749BDE8F040EB
:101E1000044803F031BD00004800002039300008BC
:101E20006D320008244D00207131000870B50B4858
:101E300001F064FA04F0ACFD084DFFF771FA084CAC
:101E40002168401A642807D3FFF76AFA2060284601
:101E5000BDE8704001F042B970BD0000244D002083
:101E6000380000200C4810B50A4901604FF4E131F8
:101E70004160002181600C22C160C0E904128161CF
:101E8000C161FFF799FD002803D0BDE81040FEF7BF
:101E900027BD10BD0010014010010020FEE7FEE745
:101EA00070477047FFF742BA30B593B030216846AB
:101EB000FEF7F7F914210CA8FEF7F3F91D480025E9
:101EC000016841F080510160006800F0805011907D
:101ED0001948016841F4804101600068022400F45F
:101EE0008040119001200090000401908001CDE914
:101EF000064008AA0420A82182E813000B90684637
:101F0000FFF790FB08B172B6FEE70CA90F2081E83D
:101F100031004FF4A0500F904FF4805010900521E5
:101F20000CA8FFF78FFA002801D072B6FEE713B0B5
:101F300030BD000040380240007000400248016897
:101F400041F470010160704788ED00E001680C31D8
:101F500051E8002F22F4907241E80023002BF5D1C4
:101F60000168143151E8002F22F0010241E80023FA
:101F7000002BF5D1016B012909D101680C3151E821
:101F8000002F22F0100241E80023002BF5D1202180
:101F900080F84210002101637047000070B50446CC
:101FA00000680169E26821F440511143016121692F
:101FB000A068E26908436169114308432168CA685F
:101FC00049F20C639A430243CA6020684169A269DE
:101FD00021F440711143416131492068884202D0A7
:101FE0003049884202D1FFF7DDFA01E0FFF7CAFA73
:101FF000E2690023192164253226B2F5004F626898
:1020000028D0A0FB0101930F9200FEF7DBF80146F8
:10201000B0FBF5F06FF01802504301EB800006EBC7
:102020000010B0FBF5F000F0F002B1FBF5F002EBB0
:102030000012B1FBF5F06FF01803584301EB80007C
:1020400006EB0010B0FBF5F000F00F002168104423
:10205000886070BDA0FB010192185B41FEF7B2F8E9
:102060000146B0FBF5F00201B1FBF5F06FF018038B
:10207000584301EB800006EBC000B0FBF5F000F028
:10208000F80002EB4002B1FBF5F0584301EB800091
:1020900006EBC000B0FBF5F000F00700D6E700004B
:1020A00000100140001401402DE9F84398461746FE
:1020B0000D460446089E24E0701C22D0FFF730F93C
:1020C000A0EB0800B0421AD8CEB12068C168490719
:1020D00017D5802D15D0402D13D00168C9430907AD
:1020E0000FD401680025406800902046FFF72EFFBE
:1020F0000820606484F840500120BDE8F883032084
:10210000FBE72068006835EA000004D00020B842F0
:10211000D2D00020F1E70120F9E7FEE70FB4054B2C
:1021200010B503A9044A029800F042F810BC5DF80B
:1021300014FB0000393300080C0100200FB47CB5FB
:102140000C0009AD01D0611E00E00021CDE90001C5
:10215000064B6A462946089800F02AF8002C02D05F
:10216000009A002111707CBC5DF814FB6923000803
:102170000907090E002804DB00F1E02080F80014B4
:10218000704700F00F0000F1E02080F8141D704748
:1021900002E008C8121F08C1002AFAD17047704730
:1021A000002001E001C1121F002AFBD1704700008E
:1021B0002DE9FF4F8BB09A460F460546002606E0F4
:1021C00025280BD052460D9990476D1C761C287817
:1021D0000028F5D10FB03046BDE8F08F0024A046AE
:1021E0000122604900E0044315F8013F203B02FA58
:1021F00003F00842F7D128782E2817D115F8010FDF
:1022000044F004042A280ED06FF02F022878A0F1A1
:10221000300109290AD808EB880102EB410100EBE3
:1022200001086D1CF2E757F8048B6D1C28786928AB
:102230003ED006DC0028CDD063280BD0642804D122
:1022400036E0732810D075284BD052460D99904730
:10225000761C85E017F8040B8DF8000000208DF83F
:102260000100E946012003E057F8049B4FF0FF30DE
:1022700061074FF0000401D40AE0641C44450DDA04
:102280008442FADB19F804100029F6D106E0641C38
:102290008442FCDB19F804100029F8D1264404E03C
:1022A00019F8010B52460D999047641EF8D257E079
:1022B00001CF4FF00A0B002802DA40422D2102E044
:1022C000210504D52B218DF82410012103E0E1071D
:1022D00005D02021F7E70DF1200908910CE000213D
:1022E000F9E701CF4FF00A0BF9E75946FDF7F8FF80
:1022F00001F1300209F8012D0028F6D1ADEB0900FB
:1023000000F1200B600701D44FF00108D84502DD31
:10231000A8EB0B0000E000208046002406E009A89E
:102320005246005D0D999047641C761C08988442C3
:10233000F5DB04E0302052460D999047761CB8F149
:102340000001A8F10108F5DC05E019F8010B52467F
:102350000D999047761CBBF10001ABF1010BF4DC49
:102360006D1C34E7092801004A68002A06D00A6873
:10237000531C0B6010704868401E48607047000096
:1023800070B505460C46880706D006A34FF4B67212
:1023900010A118A0FFF7C2FEA86800682060A86816
:1023A000046070BD2E2E2F4D6964646C6577617278
:1023B00065732F54686972645F50617274792F4C31
:1023C0007749502F7372632F636F72652F6D656D40
:1023D000702E63006D656D705F667265653A206D85
:1023E000656D2070726F7065726C7920616C6967C1
:1023F0006E656400417373657274696F6E20222587
:102400007322206661696C6564206174206C696E5A
:102410006520256420696E2025730A0010B5806848
:102420000468002C0CD021680160A00706D005A329
:102430004FF48C720FA118A0FFF770FE204610BD5C
:10244000002010BD2E2E2F4D6964646C657761727B
:1024500065732F54686972645F50617274792F4C90
:102460007749502F7372632F636F72652F6D656D9F
:10247000702E63006D656D705F6D616C6C6F633A9B
:10248000206D656D702070726F7065726C7920615F
:102490006C69676E65640000417373657274696F7F
:1024A0006E2022257322206661696C656420617448
:1024B000206C696E6520256420696E2025730A00F2
:1024C00070B5094D0646002404EB440005EBC0003E
:1024D000017D29B18068B04202D1204600F036F972
:1024E000641C0A2CF0DB70BD948200202DE9F74FAC
:1024F00084B04FF00A0B00240646DA465F46D94600
:1025000002940194CDF80040514904EB440001EBE2
:10251000C008039098F814500A2F1DD0002D2AD01F
:10252000012D08D0022D06D24AA340F2231257A152
:1025300066A0FFF7F3FD9EB13168D8F80400814230
:102540000ED1069820B1D8F808100698814207D11C
:10255000204607B0BDE8F08F002DE1D127460AE004
:10256000012D16D0022D06D3B8F81200009988422A
:1025700001D3A2460090641C24B20A2CC4DB059847
:1025800081074FF0FF30E4D40A2F16D018DA3C460A
:102590003EE02F49039851F830000028B8F81200A7
:1025A00005D002998842E6D3A1460290E3E701995B
:1025B0008842E0D3A3460190DDE70599C907C8D05A
:1025C0005146BAF10A0F0EDA0C46214801EB4401DC
:1025D00050F8310080B11FA340F26D1245A13BA01D
:1025E000FFF79CFD08E05946BBF10A0F03DB4946A3
:1025F000B9F10A0FADDA0C460A2C06DB15A340F23E
:102600007F1242A131A0FFF789FD204600F09EF81D
:102610000A2C06DB0FA340F283123CA12BA0FFF78C
:102620007DFD0B4804EB440100EBC105287D30B172
:1026300008A34FF4C2723AA124A0FFF76FFD0EB1B8
:1026400030686860002068820698A86080E7000013
:10265000948200202E2E2F4D6964646C6577617220
:1026600065732F54686972645F50617274792F4C7E
:102670007749502F7372632F636F72652F6970767D
:10268000342F6574686172702E6300007374617416
:1026900065203D3D204554484152505F53544154BC
:1026A000455F50454E44494E47207C7C2073746101
:1026B0007465203E3D204554484152505F5354417B
:1026C00054455F535441424C4500000041737365CB
:1026D0007274696F6E2022257322206661696C65B1
:1026E00064206174206C696E6520256420696E2009
:1026F00025730A006172705F7461626C655B695D6D
:102700002E71203D3D204E554C4C000069203C2050
:102710004152505F5441424C455F53495A45000075
:102720006172705F7461626C655B695D2E73746168
:102730007465203D3D204554484152505F535441FB
:1027400054455F454D5054590000000070B5074C8A
:1027500000EB4005002654F8350018B103F0F4FDF5
:1027600044F8356004EBC500067570BD9482002006
:102770002DE9F04385B00D00074609D07C684FF481
:1027800080782088404539D12079062836D109E063
:102790001CA340F28A2229A12CA0FFF7BFFC05B0A0
:1027A000BDE8F0836079042828D16088082825D105
:1027B000D4F80E000490A169686820B1814202D16A
:1027C0000126334601E00026022304F10802914667
:1027D00004A9284600F0A2FBE08840450ED16EB166
:1027E000022204ABCDE90232291DCDE9001905F121
:1027F000260319464A46284600F090FA384603F068
:10280000A3FDCCE72E2E2F4D6964646C6577617251
:1028100065732F54686972645F50617274792F4CCC
:102820007749502F7372632F636F72652F697076CB
:10283000342F6574686172702E6300006E65746970
:102840006620213D204E554C4C00000041737365BD
:102850007274696F6E2022257322206661696C652F
:1028600064206174206C696E6520256420696E2087
:1028700025730A00FEB515460E46040006D143A393
:1028800040F21E324FA153A0FFF748FC36B93FA3D8
:1028900040F21F3259A14FA0FFF740FC35B93BA3CE
:1028A0004FF4487258A14BA0FFF738FC2146286826
:1028B00000F0D2FE08B1584B3FE02868C0F3031186
:1028C0000E2925D0A168636800EA01020B409A42F4
:1028D00008D080B2A0F57E41A93903D0E068B0B33A
:1028E00004F10C054D4B4E481A7802EB420100EB07
:1028F000C1010F7D022F2ED38F68A7422BD12F68E5
:1029000049688F4227D13146204600F08BF8FEBD42
:1029100001208DF8040000208DF805005E208DF860
:102920000600687801AB00F07F008DF80700A878FA
:102930008DF80800E8788DF809004FF400600090E9
:1029400004F126023146204600F014FCFEBDFFE7EC
:102950006FF00300FAE7002202EB420100EBC10135
:102960000F7D022F08D38F68A74205D12F684968D1
:102970008F4201D11A70C6E7521CD2B20A2AEBD399
:1029800032462946204600F0D5F8DFE72E2E2F4D9F
:102990006964646C6577617265732F5468697264E9
:1029A0005F50617274792F4C7749502F7372632F87
:1029B000636F72652F697076342F65746861727009
:1029C0002E6300006E6574696620213D204E554CD3
:1029D0004C000000417373657274696F6E2022258C
:1029E0007322206661696C6564206174206C696E75
:1029F0006520256420696E2025730A007120213D21
:102A0000204E554C4C0000006970616464722021B6
:102A10003D204E554C4C0000E4D20008EC00002054
:102A2000948200202DE9F8430646154688461C4846
:102A300002EB450100EBC104207D022806D219A358
:102A400040F2EE2225A131A0FFF768FB144A05EB06
:102A50004501207D02EBC1050C35022813D1608AA7
:102A60000327B0F58E7F04D9211D304600F010FAFF
:102A700007E0B0F5877F06D32A46211D304600F0D7
:102A80000DFA00B927754FF4006000902B4606F14F
:102A900026024146304600F06DFBBDE8F883000099
:102AA000948200202E2E2F4D6964646C65776172CC
:102AB00065732F54686972645F50617274792F4C2A
:102AC0007749502F7372632F636F72652F69707629
:102AD000342F6574686172702E6300006172705FDC
:102AE0007461626C655B6172705F6964785D2E739E
:102AF00074617465203E3D204554484152505F53F7
:102B0000544154455F535441424C450041737365F1
:102B10007274696F6E2022257322206661696C656C
:102B200064206174206C696E6520256420696E20C4
:102B300025730A002DE9FC5F8246263001900E467F
:102B4000086814464FF0FF374FF0000B514600F075
:102B500083FD80B93068C0F303110E290BD056B144
:102B600048B1524601213046FFF7C0FC050005D5AB
:102B700040B2BDE8FC9F6FF00F00FAE77F2D06D34F
:102B800037A340F2C13244A147A0FFF7C7FA05F0CE
:102B9000FF094F4909EB490801EBC805287D0028CA
:102BA0000ED0012808D0022806D22DA340F2CD3243
:102BB00048A13DA0FFF7B2FABBF1000F06D104E037
:102BC00001202875C5F808A000E034B93146504608
:102BD00000F05EF90746002CCBD0287D3C4E022841
:102BE0000ED346494FF4006005F10C0381F80090C4
:102BF000009021465046019A00F0BCFA07462DE0AD
:102C000001282BD1254640F2F1376889298988426D
:102C100007D1286828B112A33A4639A122A0FFF7AC
:102C20007DFA287B400607D522464FF420710E20FE
:102C300003F0C0F9044605E02D68002DE5D12046DB
:102C400003F000FD44B156F8380008B103F07CFBF6
:102C500046F83840002701E04FF0FF37384688E754
:102C60002E2E2F4D6964646C6577617265732F54E5
:102C7000686972645F50617274792F4C7749502F84
:102C80007372632F636F72652F697076342F65746A
:102C9000686172702E63000074797065206F7665CC
:102CA00072666C6F77000000417373657274696FB0
:102CB0006E2022257322206661696C656420617430
:102CC000206C696E6520256420696E2025730A00DA
:102CD000948200206172705F7461626C655B695DF3
:102CE0002E7374617465203D3D2050454E44494E1D
:102CF00047206F7220535441424C4500EC000020A5
:102D00006E6F207061636B65742071756575657396
:102D100020616C6C6F776564210000002DE9FF4F26
:102D200081B09846DDE90FA9DDF838B006004FF014
:102D3000000706D12CA340F2574239A13CA0FFF76F
:102D4000EDF94FF420721C210E2002F003FF050064
:102D500046D068891C2806D223A340F262423EA1D5
:102D600033A0FFF7DBF96C68119801F0E1FDE0801A
:102D700096F82C00062806D01BA340F2694243496E
:102D80002BA0FFF7CBF9D8F80010A160B8F8040029
:102D9000A081DAF80010C4F81210BAF80400E0823A
:102DA000DBF80000C4F80E00D9F80000A0614FF471
:102DB00080702080082060800620207104206071CF
:102DC00040F60600DDE9022300902946304600F077
:102DD000D1F9284603F0B8FA384605B0BDE8F08FBF
:102DE0004FF0FF30F9E700002E2E2F4D6964646C20
:102DF0006577617265732F54686972645F506172A0
:102E000074792F4C7749502F7372632F636F7265FB
:102E10002F697076342F6574686172702E630000BC
:102E20006E6574696620213D204E554C4C000000B3
:102E3000417373657274696F6E2022257322206658
:102E400061696C6564206174206C696E652025641D
:102E500020696E2025730A00636865636B207468BF
:102E60006174206669727374207062756620636194
:102E70006E20686F6C64207374727563742065745F
:102E8000686172705F6864720000000048D50008D5
:102E9000014A00F003B80000E4D200087FB5064DF7
:102EA000031D0124CDE90035CDE902142233194672
:102EB000FFF734FF04B070BDEAD2000870B5164DBC
:102EC000002400BF04EB440005EBC002117DF1B10A
:102ED000508A401C80B25082B0F5967F0AD20129F8
:102EE00006D003290AD004290AD001290BD00EE00C
:102EF000052808D32046FFF729FC08E0042000E05D
:102F00000220107503E0111D9068FFF7C1FF641CDB
:102F10000A2CD7DB70BD000094820020F8B504466F
:102F200090F82C001F4616460D46062806D020A312
:102F300040F2A9122CA135A0FFF7F0F89DB1286846
:102F400088B1214600F088FB68B92878C0F30310E7
:102F50000E2808D0224639462846FFF7C7FA00282F
:102F600004DA40B2F8BD6FF00F00F8BD00EB40018D
:102F70003048022300EBC102137594603368D360BC
:102F8000B38813820023538250F8315075B140F852
:102F900031304FF400600090334604F12602294698
:102FA000204600F0E7F8284603F0CEF90020F8BDEF
:102FB0002E2E2F4D6964646C6577617265732F5492
:102FC000686972645F50617274792F4C7749502F31
:102FD0007372632F636F72652F697076342F657417
:102FE000686172702E6300006E657469662D3E68BC
:102FF00077616464725F6C656E203D3D2045544886
:103000005F4857414444525F4C454E0041737365DD
:103010007274696F6E2022257322206661696C6567
:1030200064206174206C696E6520256420696E20BF
:1030300025730A00948200202DE9F041044640895E
:103040000E270D460E283CD9E07B18B995F83000C4
:10305000401CE073606801788689CA0714D0012992
:1030600005D006221C49FDF72EF948B10CE0417845
:1030700051B980785E2807D1607B40F0100002E0F3
:10308000607B40F008006073082E03D0B6F5C16F76
:1030900017D10DE095F82D00000712D539462046CE
:1030A00003F016FB68B92946204600F01DFC10E02D
:1030B00095F82D00000704D53946204603F008FB9B
:1030C00018B1204603F040F903E029462046FFF7F7
:1030D0004FFB0020BDE8F081E4D2000870B59AB043
:1030E000064664216846FDF7DCF800252C461F489B
:1030F000FEF71BFD96F82D1049070DD5012809DCB8
:103100001A48E838FDF744FF304602F061FB3046CC
:1031100002F0B6FB1AB070BD0128FBDD4FF4006170
:10312000CA00022806D0032805D0042805D00528A7
:10313000F0D103E00C46154600E00C460B4869460A
:10314000E838FDF7E2FB0948CDE905546946E8385F
:10315000FDF7AAFE0548E838FDF7DCFE304602F030
:1031600045FC304602F0E2FBD4E70000044D0020AD
:10317000704700002DE9F04104461F4690460E4678
:10318000069801F0D5FB05460E21304602F07EFC84
:1031900018B16FF00100BDE8F08170688581396871
:1031A0000160B9888180D8F80020C0F80620B8F8FE
:1031B0000410418194F82C00062806D006A34FF491
:1031C000997213A11FA0FEF7A9FF31462046A269FC
:1031D000BDE8F041104700002E2E2F4D6964646C4D
:1031E0006577617265732F54686972645F506172AC
:1031F00074792F4C7749502F7372632F6E65746901
:10320000662F65746865726E65742E630000000039
:103210006E657469662D3E6877616464725F6C6583
:103220006E206D757374206265203620666F722083
:1032300065746865726E65745F6F757470757421FE
:1032400000000000417373657274696F6E2022255F
:103250007322206661696C6564206174206C696EFC
:103260006520256420696E2025730A0010B50400CE
:1032700006D10BA340F26F1210A114A0FEF74EFF6F
:10328000732084F82E00742084F82F0019486061A0
:103290001948A061204601F077FA002010BD000017
:1032A0002E2E2F4C5749502F5461726765742F652D
:1032B000746865726E657469662E63006E65746904
:1032C0006620213D204E554C4C0000004173736533
:1032D0007274696F6E2022257322206661696C65A5
:1032E00064206174206C696E6520256420696E20FD
:1032F00025730A007528000881480008F8B50C4FAE
:10330000054600260096387818B969460948FDF741
:10331000ECFC009C002C09D02A69294620469047E5
:103320000028EFD0204603F00FF8EBE7F8BD0000CF
:103330001C0000201C4C002013B54FF6FF73012227
:1033400069460248FEF7A0FB00981CBD1001002052
:103350000A46032100F0F4B82DE9FE4F8A4644499D
:103360000446D1F8088098F800000007850E142D57
:1033700079D36089042876D360680078002872D0F9
:10338000082870D1486901F11407C0F303120E2A0E
:1033900069D08946096800F05FF9002863D1208967
:1033A000082860D305F10E010E46204602F06EFBA0
:1033B000002830D02089411989B2884253D84FF46F
:1033C00020720E2002F0C6FB06004CD0718905F178
:1033D0000800814216D32A4641467068FCF73AFF3E
:1033E0002946304603F074F9002806D021A3B622FE
:1033F0002EA13CA0FEF792FE04E02146304602F0EA
:1034000027FE18B1304602F09FFF2CE0204602F064
:103410009BFF34460CE03146204603F059F9002862
:1034200006D014A3C72239A12EA0FEF777FE1AE01A
:1034300029462046666802F029FBA0B96068396811
:10344000FF22C160D9F81010016100213170718034
:103450000272418101228DE806040A46FF233946A3
:10346000204600F011FB2046BDE8FE4F02F06CBF85
:10347000584D00202E2E2F4D6964646C6577617263
:1034800065732F54686972645F50617274792F4C50
:103490007749502F7372632F636F72652F6970764F
:1034A000342F69636D702E630000000069636D70D6
:1034B0005F696E7075743A206D6F76696E67207201
:1034C0002D3E7061796C6F616420746F2069636D4B
:1034D0007020686561646572206661696C65640A64
:1034E00000000000417373657274696F6E202225BD
:1034F0007322206661696C6564206174206C696E5A
:103500006520256420696E2025730A0069636D704B
:103510005F696E7075743A20726573746F72696E4C
:1035200067206F726967696E616C20702D3E7061F3
:10353000796C6F6164206661696C65640A000000E3
:103540002DE9FF479146884606464FF42072242114
:10355000222002F0FFFA050031D06889242806D223
:1035600018A34FF4B47225A12FA0FEF7D7FD6C6805
:1035700077681C2284F8008084F801904FF00008DE
:10358000A4F80480A4F80680686871680830FCF725
:1035900061FEF868039003A800F086FC60B1A4F80F
:1035A00002800122CDF80080CDE90120FF2303AA8B
:1035B0000021284600F068FA284602F0C5FEBDE862
:1035C000FF8700002E2E2F4D6964646C6577617251
:1035D00065732F54686972645F50617274792F4CFF
:1035E0007749502F7372632F636F72652F697076FE
:1035F000342F69636D702E6300000000636865639B
:103600006B207468617420666972737420706275CF
:10361000662063616E20686F6C642069636D702042
:103620006D65737361676500417373657274696F6B
:103630006E2022257322206661696C6564206174A6
:10364000206C696E6520256420696E2025730A0050
:103650000A460B21FFF774BF421C12D088B191F8C3
:103660002D2092070BD54B68834208D0896800EA69
:1036700001020B409A4202D10143491C01D00020B3
:1036800070470120704700002DE9F74F88B00446CD
:10369000099800251426808CAF1F1438C11700EB41
:1036A0005170C0F3CF00039060680690017801F07C
:1036B0000F01052903D038460BB0BDE8F08F6189B2
:1036C000142907D25BA34FF43F7269A16FA0FEF7E4
:1036D00025FDF0E7C08801F02BF9C0F30C0100F4E0
:1036E000005002910790208914381FFA80F88EE06C
:1036F00003984FF6FF7101EAC0004146404500D9EA
:10370000084604904FF4207214210E2002F022FA91
:103710005FEA000A7ED0BAF80A00142806D245A350
:103720004FF4497263A159A0FEF7F8FC1422DAF8AD
:1037300004000699FCF78EFDDAF804000590049F5A
:1037400035E06089811B8DB2B04206D239A340F2C8
:103750002D3260A14DA0FEF7E1FCAF4200D23D4604
:103760001DB3052001F07CFD5FEA000957D06068B9
:103770004B463044CDE9000541222946002002F0A5
:103780005BFB5FEA000B50D0204602F05BFF55491F
:10379000C9E904145946504602F06AFB781B070435
:1037A0003F0C06D000262468CBE724680026002FB3
:1037B000C7D1701986B20998808C14384045029898
:1037C000C0F30C0001DB079909B140F4005001F08F
:1037D000AFF80599C8800498143080B201F0A8F8B9
:1037E00005994880059800214181099851460A9A17
:1037F00043699847504602F0A7FD0499A8EB0100E1
:103800001FFA80F8DDE90201084480B20290B8F1A5
:10381000000F00E006E07FF46BAF00204CE750465D
:1038200002F092FD4FF0FF3046E7484600F074FC8E
:10383000F5E700002E2E2F4D6964646C6577617288
:1038400065732F54686972645F50617274792F4C8C
:103850007749502F7372632F636F72652F6970768B
:10386000342F6970345F667261672E630000000058
:103870006970345F6672616728293A2070627566E4
:1038800020746F6F2073686F7274000041737365EA
:103890007274696F6E2022257322206661696C65DF
:1038A00064206174206C696E6520256420696E2037
:1038B00025730A0074686973206E656564732061FE
:1038C000207062756620696E206F6E652070696574
:1038D00063652100702D3E6C656E203E3D20706F4B
:1038E00066660000F14600082DE9F0474568074686
:1038F0000E4628780421B1EB101F03D0384602F0A1
:1039000023FD77E000074FEA9068688801F010F81F
:1039100004463889A04203D92146384602F0F8FD12
:1039200079894145EAD33889A042E7D3B8F1140F29
:10393000E4D32969DFF81C91C1F303100E28C9F8FC
:103940001410EA68C9F8102005D0304600F086F857
:1039500050B1344619E096F82D00C00702D07068C7
:103960000028F6D1002410E099F8140000247F28E4
:103970000BD03948046806E0B44203D0204600F07A
:103980006DF810B92468002CF6D13146D9F8100032
:10399000FFF762FE0028B1D199F81000C0F30310C0
:1039A0000E28ABD0002CA9D0E88830F0C00005D09C
:1039B000384600F035F907001CD07D68C9F808507A
:1039C000C9E90046297838460907890EA9F80C107C
:1039D000414602F07DFE687A012818D0062811D0F1
:1039E00011280AD04D462146D9F81400FFF734FEBD
:1039F00090B11EE00020BDE8F0873146384609F05E
:103A0000CBFA19E03146384604F062FB14E0314647
:103A10003846FFF7A1FC0FE0287DC0F303100E2805
:103A200007D04146384602F05BFD02213846FFF7D9
:103A30008FFC384602F088FC0021C9F80010C9F854
:103A40000410C9F80810A9F80C10C9F81010C9F82A
:103A50001410CFE7584D00208800002010B590F8D2
:103A60002D10C9070CD0416851B1064A52698A42EB
:103A700004D001461046FFF7EFFD08B1012010BD4C
:103A8000002010BD584D0020FEB5DDE90954089E08
:103A90001AB109B10F6807B9211D0096CDE901548B
:103AA00000F002F8FEBD00002DE9F84F0546DDE903
:103AB0000BA8807BDDF828B01F46164689460128F2
:103AC00006D02FA34FF455723AA13DA0FEF726FB76
:103AD0006FF00104002E35D01421284601F0D6FFE6
:103AE000002832D168896C68142806D224A34FF4C8
:103AF00062723DA132A0FEF711FB277284F809A083
:103B0000306820614520207084F801B0288900F0D9
:103B10000FFF414F60804FF0000AA4F806A03888DC
:103B200000F006FFA0803888401C3880B9F1000FF3
:103B300005D0D9F80000E060A4F80AA00CE03748EE
:103B40000068F8E76889142802D22046BDE8F88F9B
:103B500068686E4600690090B8F8240040B1298971
:103B6000814205D9324641462846FFF78DFDEDE7F3
:103B7000D8F814304046324629469847E6E7000018
:103B80002E2E2F4D6964646C6577617265732F54B6
:103B9000686972645F50617274792F4C7749502F55
:103BA0007372632F636F72652F697076342F69703B
:103BB000342E6300702D3E726566203D3D2031003D
:103BC000417373657274696F6E20222573222066BB
:103BD00061696C6564206174206C696E6520256480
:103BE00020696E2025730A00636865636B20746822
:103BF00061742066697273742070627566206361F7
:103C00006E20686F6C6420737472756374206970C1
:103C10005F68647200000000EE000020ECD3000832
:103C20002DE9F05F45688346287800F00F000528ED
:103C30007DD1E88800F07CFEC004070C688800F0A5
:103C400077FE29780907890E814270D8401A1FFA39
:103C500080F8584602F0A4F96A4C064620883044A1
:103C60000A2809D93146284600F0ECFC00285ED02D
:103C7000208830440A28E8D8A14664684FF0000A3A
:103C80000CE06069E968884207D1A0692969884227
:103C900003D1A089A988884203D02468002CF0D1E0
:103CA00006E02CB1E88800F043FEC0041BD025E0FC
:103CB000042001F0D5FA04000AD13146284600F06C
:103CC000C1FCB04233DB042001F0CAFA0400CED0BC
:103CD0002021FCF7E6FA0F20E077D9F804102160E4
:103CE000C9F8044004E0E08900F022FEC00405D0D9
:103CF0001422294604F10800FCF7ACFAA87940F335
:103D000040156D1C08D007EB080080B2B84263D3A1
:103D10004FF6EB7188425FD82A465946204600F09C
:103D200043FA411C58D0B9F80020324400E064E066
:103D3000A9F8002035B107EB0801A183A17F41F06C
:103D40000101A177012845D1A08B1422143087B23C
:103D5000606804F10801456828462E68FCF77AFA85
:103D6000384600F0E5FD6880A5F806A0A5F80AA091
:103D7000656809E014213046776802F0A9FC3146F5
:103D8000284602F075F83E68002EF3D1D9F80410E9
:103D90004E468C4205D1002105E00868A04202D0C1
:103DA00001460029F9D1204600F022FB284602F006
:103DB000F7F804463088A04206D213A340F29B22B3
:103DC00020A127A0FEF7AAF93088001B30802846E2
:103DD000BDE8F09F0020FBE7606870B9D9F80400E7
:103DE000844206D008A340F2AB2227A11CA0FEF714
:103DF00095F90021204600F0FBFA584602F0A4FA9B
:103E0000E8E70000F00000202E2E2F4D6964646C5E
:103E10006577617265732F54686972645F5061726F
:103E200074792F4C7749502F7372632F636F7265CB
:103E30002F697076342F6970345F667261672E6304
:103E40000000000069705F72656173735F70627576
:103E500066636F756E74203E3D20636C656E000076
:103E6000417373657274696F6E2022257322206618
:103E700061696C6564206174206C696E65202564DD
:103E800020696E2025730A006E6F74206669727354
:103E900074616C74686F756768206A7573742065E7
:103EA0006E7175657565640070B50146144813E060
:103EB00090F82D20D3070FD053070DD543685BB181
:103EC00084680D68234005EA04069E4216D09207D6
:103ED00002D4C268954211D000680028E8D1094890
:103EE000006850B190F82D20D30706D0520704D5B2
:103EF000426812B109787F2900D1002070BD00000E
:103F0000880000208C0000202DE9FF4188460646ED
:103F10006F460578FCF788F903461A68505D20283B
:103F200062D100240A20302D06D116F8015F782DC9
:103F300008D0582D06D00820515D202904D0102823
:103F400006D016E0102011E0303D04FB00540DE0D7
:103F500081EA810C5FEA0C6C0BD5090701D5612160
:103F600000E04121691A0A3141EA041416F8015FA0
:103F7000E2E72E2D10D01DB11868405DC00734D087
:103F80006846381A012101EBA000052839D2DFE884
:103F900000F02B3E0A13200003A8874224D210C74A
:103FA00016F8015FB9E7B4F1807F1DD20098FF28B1
:103FB0001AD844EA00642AE0B4F5803F14D200988D
:103FC000FF2811D80199FF290ED8000640EA0140C8
:103FD00015E0FF2C08D80098FF2805D80199FF2983
:103FE00002D80299FF2903D9002004B0BDE8F0816E
:103FF0000199000640EA0140029940EA0120044389
:1040000005E008A3F92216A118A0FEF787F8B8F179
:10401000000F04D0204600F089FCC8F80000012001
:10402000E3E700002E2E2F4D6964646C65776172A2
:1040300065732F54686972645F50617274792F4C94
:104040007749502F7372632F636F72652F69707693
:10405000342F6970345F616464722E630000000065
:10406000756E68616E646C65640000004173736511
:104070007274696F6E2022257322206661696C65F7
:1040800064206174206C696E6520256420696E204F
:1040900025730A001022014900F002B88483002031
:1040A0002DE9FC430023006889466C461E464FF00C
:1040B0000A0C01AD0090002094F80080B8FBFCF7DA
:1040C0000CFB1787B8FBFCF884F8008030372F54BE
:1040D000401CC0B2B8F1000FEED106E01F465B1CD9
:1040E000974209DA2F5C01F8017B401EC0B2F5D27D
:1040F00018465B1C904202DB0020BDE8FC832E20AA
:10410000761CF6B2641C01F8010B042ED3D30020F8
:1041100001F8010C4846F0E710B5040006D106A3EB
:104120004FF4317213A116A0FDF7F8FF2146BDE848
:104130001040052000F0DCBF2E2E2F4D6964646C0A
:104140006577617265732F54686972645F5061723C
:1041500074792F4C7749502F7372632F636F726598
:104160002F697076342F6970345F667261672E63D1
:10417000000000007020213D204E554C4C000000F6
:10418000417373657274696F6E20222573222066F5
:1041900061696C6564206174206C696E65202564BA
:1041A00020696E2025730A002DE9F05F4C680646F1
:1041B00093460F4600254FF00108608800F0B8FBD9
:1041C00021784FF0FF3A0907890E814231D8A0EBE0
:1041D0000109E08800F0ACFBC0047C68010C002001
:1041E000206001EB090083B2A180E3808B4220D3E1
:1041F000726829E05068B0F804C0614515D22260A9
:104200006DB1B5F806C0614513D38088834210D8DC
:104210002F60A088844506D04FF0000803E0808816
:10422000834206D877608AB12EE002D0C2889142DC
:1042300002D25046BDE8F09F25B1EA88624501D020
:104240004FF0000802680546002AD3D195B1E888EE
:10425000A188884206D92AA34FF4DB7237A13FA078
:10426000FDF75CFF2F60E888A18888420CD04FF0F2
:10427000000809E0706830B121A34FF4DF7241A15A
:1042800036A0FDF74BFF7760BBF1000F02D1B07F86
:10429000C007CFD0B8F1000F30D07268002A2DD0FF
:1042A00050688088002829D12168204629B14C68AF
:1042B000C088A1888842F7D020E0B8F1000F1DD057
:1042C00032B90FA340F2DF123CA124A0FDF726FF74
:1042D00070684068A04206D109A34FF4F07237A17C
:1042E0001EA0FDF71BFF206830B105A34FF4F1724B
:1042F00036A11AA0FDF712FF01209BE7002099E7E5
:104300002E2E2F4D6964646C6577617265732F542E
:10431000686972645F50617274792F4C7749502FCD
:104320007372632F636F72652F697076342F6970B3
:10433000345F667261672E63000000006368656326
:104340006B20667261676D656E747320646F6E2793
:1043500074206F7665726C61700000004173736544
:104360007274696F6E2022257322206661696C6504
:1043700064206174206C696E6520256420696E205C
:1043800025730A006E6F2070726576696F757320F1
:10439000667261676D656E742C2074686973206D38
:1043A0007573742062652074686520666972737421
:1043B00020667261676D656E7421000073616E69BD
:1043C000747920636865636B0000000076616C6936
:1043D000646174655F646174616772616D3A6E6592
:1043E00078745F70627566213D4E554C4C0000003C
:1043F00070B504460C480D464168A14202D12168BF
:1044000041600AE0002D06D108A340F2451216A132
:104410001CA0FDF783FE206828602146BDE870409F
:10442000042000F065BE0000F00000202E2E2F4D6D
:104430006964646C6577617265732F54686972642E
:104440005F50617274792F4C7749502F7372632FCC
:10445000636F72652F697076342F6970345F66728E
:1044600061672E630000000073616E6974792063D8
:104470006865636B206C696E6B6564206C6973742E
:1044800000000000417373657274696F6E2022250D
:104490007322206661696C6564206174206C696EAA
:1044A0006520256420696E2025730A002DE9F047F8
:1044B000054600240F46A94205D12FA3AB223DA1FA
:1044C0003FA0FDF72BFE002F08D03868A84205D08A
:1044D00029A3AD2244A13AA0FDF720FE6E684FF457
:1044E00080387068818800291AD1006868601422B9
:1044F00005F108017068FBF7ADFE01213046FFF7BA
:10450000A7F8304601F04CFD0446404505D31AA3F8
:10451000BC223AA12AA0FDF701FE304601F014FFAB
:104520006E6812E07068B1460668484601F038FDD2
:104530000444444505D310A3CC2230A120A0FDF7AC
:10454000EDFDA4B2484601F0FFFE002EEAD1394647
:104550002846FFF74DFF314D2888A04205D206A31B
:10456000D2222FA116A0FDF7D9FD2888001B288094
:104570002046BDE8F08700002E2E2F4D6964646C44
:104580006577617265732F54686972645F506172F8
:1045900074792F4C7749502F7372632F636F726554
:1045A0002F697076342F6970345F667261672E638D
:1045B000000000007072657620213D206970720055
:1045C000417373657274696F6E20222573222066B1
:1045D00061696C6564206174206C696E6520256476
:1045E00020696E2025730A00707265762D3E6E6517
:1045F0007874203D3D20697072000000706275661D
:10460000735F6672656564202B20636C656E203C69
:104610003D2030786666666600000000F0000020ED
:1046200069705F72656173735F70627566636F75E1
:104630006E74203E3D2070627566735F66726565BC
:10464000640000002DE9F0471D4F8946064600240E
:104650000022134611461546786822E0D0F814C0AF
:10466000D6F80C80C4450BD1D0F818C0D6F810800D
:10467000C44505D1B0F80CC0B6F80480C44509D0D3
:104680006D1C2AB190F81FC092F81F80C44501D854
:1046900002461946D0F800C0BCF1000F00D0034616
:1046A00060460028DAD11AB11046FFF7FFFE044435
:1046B0004C4501DA012DCBDC2046BDE8F087000037
:1046C000F000002070B50948002544680BE0E07F49
:1046D00020B1401EE0772546246804E02046246887
:1046E0002946FFF7E3FE002CF1D170BDF000002059
:1046F00010B5040006D108A340F2CE2215A118A0DF
:10470000FDF70CFD606908B101F01EFE2046BDE812
:104710001040FFF701BD00002E2E2F4D6964646C20
:104720006577617265732F54686972645F50617256
:1047300074792F4C7749502F7372632F636F7265B2
:104740002F697076342F6970345F667261672E63EB
:104750000000000070637220213D204E554C4C003B
:10476000417373657274696F6E202225732220660F
:1047700061696C6564206174206C696E65202564D4
:1047800020696E2025730A002DE9FC41394C05464D
:104790003748206000268DF8006080208DF80100E9
:1047A000E1208DF802008DF804608DF803608DF82B
:1047B0000560C4F804D04FF40000A060A4F1A0008C
:1047C000E060A03820614FF4C06060612046FCF7D3
:1047D0007DF90746382104F1B000FBF762FD04F1D2
:1047E000B000212101604FF44001C0E9046122487A
:1047F00000F020FD062085F82C0060681F49007835
:1048000085F826006068407885F827006068807821
:1048100085F828006068C07885F82900606800790C
:1048200085F82A006068407985F82B0040F2DC505A
:10483000A88495F82D0040F00A0085F82D0004F1B9
:10484000E800FDF7ECF904F1E800FDF7B8F938B13C
:10485000284601F015F8284600F0BAFFBDE8FC81B3
:1048600017B1FCF73DF8F9E72846FEF737FCF5E706
:10487000008002401C4C0020D8D2000820000020FC
:10488000F0B58DB00E4600252F4630216846FBF767
:1048900008FD30216846FBF704FD344668460022D7
:1048A00016E0042D03D36FF00B000DB0F0BD05EB47
:1048B0004501636840F8213000EB810163894B605A
:1048C0000DB141F8041C236803B98A6024686D1C8B
:1048D000002CE6D1054932894E63C1E9012014223A
:1048E000A1F1B000FCF78DFB3846DEE7CC4C002090
:1048F00010B504464068804702F074F8094A216800
:1049000052688B181A1AB2F1004F03D3084422469A
:10491000054902E0044922461846BDE8104002F06D
:10492000C5B80000D8000020F148000800BA704760
:1049300040BA704710B500F0B7F900F06BFC00F01A
:10494000ABFE08F01DFB03F0B7FBBDE8104002F022
:1049500029B9000090B0FCF7F1FCFDF7A5FAFDF7CE
:1049600075F9FDF77FFAFDF7CBF925A0FDF7D6FB2A
:104970002FA0FDF7D3FB3548FFF78CFB014634A091
:10498000FDF7CCFB35A0FDF7C9FB07F015F83FA0FC
:10499000FDF7C4FB4FF4FA60FBF7A4FF02F0F8FB4D
:1049A000DFF81481454D4FF4FA7741F2883600BFA5
:1049B000FDF73CFAFCF7B4FC04462868201AB8421C
:1049C00004D3042140462C60FCF79CFC6868201A44
:1049D000B042EDD36C6002F067FC58B1AB6838A20E
:1049E0005B1C40216846AB60FDF7A8FB684602F0FF
:1049F000B3FCDDE738A0FDF791FB02F0C9FBD7E778
:104A00000D0A3D3D3D3D3D3D3D3D3D3D3D3D3D3D39
:104A10003D3D3D3D3D3D3D3D3D3D3D3D3D3D3D3DC6
:104A20003D3D3D3D3D3D3D3D3D3D0D0A000000000D
:104A3000202053544D333246343037204C574950A0
:104A40002054435020546573740D0A00284D0020F3
:104A5000202049503A2025730D0A00003D3D3D3D80
:104A60003D3D3D3D3D3D3D3D3D3D3D3D3D3D3D3D76
:104A70003D3D3D3D3D3D3D3D3D3D3D3D3D3D3D3D66
:104A80003D3D3D3D0D0A0D0A000000000D0A576135
:104A90006974696E6720327320666F72206E657468
:104AA000776F726B20746F2073746162696C697ABE
:104AB000652E2E2E0D0A000000040240000000208A
:104AC00048656C6C6F2066726F6D2053544D3332A5
:104AD000202325640D0A00004D61696E3A2054437D
:104AE0005020436C69656E74206E6F7420636F6E26
:104AF0006E65637465642C207265747279696E6783
:104B00002E2E2E0D0A0000002DE9F04100284DD078
:104B1000810704D026A340F2732231A132E0394D3F
:104B2000A0F1080429688C4203D36A680C309042D3
:104B300004D91FA340F27F2233A123E0207900286B
:104B400025D0601A86B2208801F0FAFE07466088F8
:104B500001F0F6FE21884FF4C863002299420DD877
:104B6000618899420AD8B14202D00088B04205D18A
:104B70006868874210D07888B0420DD00CA340F20C
:104B8000952228A1BDE8F04133A0FDF7C7BA08A3DC
:104B90004FF423723AA1F5E72271A868844200D24B
:104BA000AC602046BDE8F04101F0FABDBDE8F081FF
:104BB0002E2E2F4D6964646C6577617265732F5476
:104BC000686972645F50617274792F4C7749502F15
:104BD0007372632F636F72652F6D656D2E630000B6
:104BE0006D656D5F667265653A2073616E69747993
:104BF00020636865636B20616C69676E6D656E74B8
:104C000000000000540000206D656D5F66726565F0
:104C10003A20696C6C6567616C206D656D6F7279A7
:104C2000000000006D656D5F667265653A20696C15
:104C30006C6567616C206D656D6F72793A206E6F7F
:104C40006E2D6C696E6B65643A20646F75626C657D
:104C50002066726565000000417373657274696F48
:104C60006E2022257322206661696C656420617460
:104C7000206C696E6520256420696E2025730A000A
:104C80006D656D5F667265653A20696C6C6567611C
:104C90006C206D656D6F72793A20646F75626C651A
:104CA000206672656500000070B50B480B4C20F063
:104CB00003014FF4C86521600D8000204880087111
:104CC000284601F03DFE01216060017105804580AC
:104CD0002068A06070BD0000734D002054000020CB
:104CE0002DE9F04700286FD0C41C4FF6FC710C4032
:104CF0004FF4C8690C2C01D20C2401E04C457CD83F
:104D000084427AD34148C4F5C86782460189028843
:104D1000891A8EB276E0304601F012FE054600791F
:104D200000286CD12888801B0838A04267D32888C7
:104D300004F11401801B08384FF0010888421DD38C
:104D40003019083087B24F4506D131A340F287327F
:104D50003BA140A0FDF7E2F9384601F0F1FD00214A
:104D600001712988018046802F8085F804800088A1
:104D7000484505D001F0E4FD478001E085F8048056
:104D8000DAF808005646854203D014E0008801F0A6
:104D9000D7FD017911B171688842F7D1B0607168AF
:104DA000884208D0007930B119A340F2B53233A15E
:104DB00028A0FDF7B3F9281971680830884208D98E
:104DC00013A340F2B93200E015E033A121A0FDF7B2
:104DD000A5F9A8070DD00EA340F2BB323AA11DA041
:104DE000FDF79CF90AA340F2BD3243A119A0FDF7DB
:104DF00095F905F10800BDE8F08705E0FFE7DAF86E
:104E00000000865BB74286D80020F4E754000020FB
:104E10002E2E2F4D6964646C6577617265732F5413
:104E2000686972645F50617274792F4C7749502FB2
:104E30007372632F636F72652F6D656D2E63000053
:104E4000696E76616C6964206E6578742070747226
:104E500000000000417373657274696F6E20222533
:104E60007322206661696C6564206174206C696ED0
:104E70006520256420696E2025730A006D656D5FCD
:104E80006D616C6C6F633A20216C667265652D3EB6
:104E900075736564000000006D656D5F6D616C6C1D
:104EA0006F633A20616C6C6F6361746564206D653B
:104EB0006D6F7279206E6F742061626F76652072FB
:104EC000616D5F656E642E006D656D5F6D616C6C0C
:104ED0006F633A20616C6C6F6361746564206D650B
:104EE0006D6F72792070726F7065726C7920616C71
:104EF00069676E65642E00006D656D5F6D616C6C39
:104F00006F633A2073616E69747920636865636BBF
:104F100020616C69676E6D656E74000002490988D6
:104F2000401A80B270470000540000202DE9F05F65
:104F30000646CC1C4FF6FC7004404FF4C86A0C2C9B
:104F400001D20C2401E054452AD88C4228D33E4F8C
:104F50003868864202D37868864206D33BA340F283
:104F6000D12246A14BA0FDF7D9F83868864249D333
:104F700079688E4246D2A6F10805BB46281A87B248
:104F80002888C01B08381FFA80F94C4506D92FA382
:104F90004FF4397249A13FA0FDF7C0F84C4503D941
:104FA0004FF00000BDE8F09F2CD0288801F0C8FC2D
:104FB00080460079002827D004F11400484521D804
:104FC0003819083084B22888504506D11FA340F212
:104FD000163242A12FA0FDF7A1F8204601F0B0FC47
:104FE000DBF80820904201D2CBF8080000210171C3
:104FF0002988018047802C800088504502D001F02C
:105000009FFC44803046CDE72888504506D10FA349
:1050100040F2F52231A11FA0FDF780F838190830C1
:10502000DBF80810B8F8009084B2414504D120465E
:1050300001F086FCCBF80800204601F081FC00213D
:105040000171A0F80090D5E7540000202E2E2F4DBE
:105050006964646C6577617265732F546869726402
:105060005F50617274792F4C7749502F7372632FA0
:10507000636F72652F6D656D2E6300006D656D5FEA
:105080007472696D3A206C6567616C206D656D6F37
:1050900072790000417373657274696F6E20222506
:1050A0007322206661696C6564206174206C696E8E
:1050B0006520256420696E2025730A006D656D5F8B
:1050C0007472696D2063616E206F6E6C79207368F5
:1050D00072696E6B206D656D6F727900696E7661B5
:1050E0006C6964206E657874207074720000000032
:1050F000092806D307A34FF4D57212A118A0FDF713
:105100000DB8002904D0204A52F82000FDF738B924
:10511000704700002E2E2F4D6964646C65776172B4
:1051200065732F54686972645F50617274792F4C93
:105130007749502F7372632F636F72652F6D656DA2
:10514000702E63006D656D705F667265653A2074E0
:10515000797065203C204D454D505F4D4158000011
:10516000417373657274696F6E2022257322206605
:1051700061696C6564206174206C696E65202564CA
:1051800020696E2025730A005CD3000818B100293D
:1051900008D0FDF7F5B804A340F295120EA113A0B4
:1051A000FCF7BCBF704700002E2E2F4D6964646C65
:1051B0006577617265732F54686972645F506172BC
:1051C00074792F4C7749502F7372632F636F726518
:1051D0002F6D656D702E6300696E76616C69642059
:1051E000706F6F6C206465736300000041737365BA
:1051F0007274696F6E2022257322206661696C6566
:1052000064206174206C696E6520256420696E20BD
:1052100025730A0030B5064D002400BF55F8240060
:1052200000F008F8641CA4B2092CF7D330BD0000CC
:105230005CD300088268002111604168C91C21F01C
:105240000301002207E08368521C1B680B6083681F
:1052500019600388194443889342F4DC70470000C6
:1052600010B5092808D308A340F2571212A11AA0BA
:10527000FCF754FF002010BD214951F82000BDE883
:105280001040FDF7CBB800002E2E2F4D6964646CE2
:105290006577617265732F54686972645F506172DB
:1052A00074792F4C7749502F7372632F636F726537
:1052B0002F6D656D702E63006D656D705F6D616C37
:1052C0006C6F633A2074797065203C204D454D50D9
:1052D0005F4D415800000000417373657274696F3F
:1052E0006E2022257322206661696C6564206174DA
:1052F000206C696E6520256420696E2025730A0084
:105300005CD3000810B518B1BDE81040FDF786B8B1
:1053100004A34FF49E720FA113A0FCF7FFFE002020
:1053200010BD00002E2E2F4D6964646C657761728C
:1053300065732F54686972645F50617274792F4C81
:105340007749502F7372632F636F72652F6D656D90
:10535000702E6300696E76616C696420706F6F6C8B
:105360002064657363000000417373657274696F34
:105370006E2022257322206661696C656420617449
:10538000206C696E6520256420696E2025730A00F3
:105390002DE9F0470400DDE90970089D03D03FB115
:1053A00000290DD00DE035A340F2271240A103E003
:1053B00032A34FF4947245A14DA0FCF7AFFE1DE05F
:1053C000554902B9544A03B9534B00266660A6609A
:1053D000DFF848C1C4F814C0E660A68484F82D60E4
:1053E000C4E907654E4D95F800C084F830C02061CF
:1053F000204600F0B7F92046B84710B10020BDE8BC
:10540000F087B24640F28B1840F28D1994F83000C4
:10541000FF2801D184F830A000276E681EE0A64264
:1054200005D116A342463FA131A0FCF777FE7F1CB1
:10543000FF2F05DD11A34A463FA12DA0FCF76EFE0C
:1054400096F8300094F83010884206D1C8B2401C5B
:1054500084F83000002ED9D102E03668002EDED16B
:1054600094F83000FE2806D0401C28706868206040
:1054700020466C60C3E785F800A0F7E72E2E2F4D7D
:105480006964646C6577617265732F5468697264CE
:105490005F50617274792F4C7749502F7372632F6C
:1054A000636F72652F6E657469662E63000000007D
:1054B0006E657469665F6164643A20696E76616CDA
:1054C0006964206E65746966000000006E65746929
:1054D000665F6164643A204E6F20696E697420666D
:1054E000756E6374696F6E20676976656E00000083
:1054F000417373657274696F6E2022257322206672
:1055000061696C6564206174206C696E6520256436
:1055100020696E2025730A00ECD300085D5700084F
:10552000840000206E6574696620616C7265616438
:105530007920616464656400746F6F206D616E79B9
:10554000206E65746966732C206D61782E207375EA
:1055500070706F72746564206E756D62657220691B
:10556000732032353500000070B50C46054603F057
:10557000CDFB21462846BDE8704007F087BE0A688B
:10558000C3689A4204D001B90022C260012070476A
:1055900000207047F8B516460C00054606D113A347
:1055A00040F2CB121EA122A0FCF7B8FD36B90FA322
:1055B0004FF4E6721AA11EA0FCF7B0FD20686968DE
:1055C000884211D000906868306069463046FFF725
:1055D000CBFF3CB1206868600121284600F05EF8EE
:1055E0000120F8BD0020F6E70020F8BD2E2E2F4D3B
:1055F0006964646C6577617265732F54686972645D
:105600005F50617274792F4C7749502F7372632FFA
:10561000636F72652F6E657469662E63000000000B
:10562000696E76616C696420706F696E7465720072
:10563000417373657274696F6E2022257322206630
:1056400061696C6564206174206C696E65202564F5
:1056500020696E2025730A000A6883689A4204D084
:1056600001B90022826001207047002070470000CD
:1056700001000CD00748406807E000BF90F83020D8
:10568000521CD2B28A4203D000680028F6D1002012
:1056900070470000840000207047000070B50D4680
:1056A000040006D10DA340F26D3219A121A0FCF730
:1056B00035FD94F82D0041070ED5C1070CD0E90740
:1056C0000AD06168002907D0000705D5211D2046B2
:1056D000BDE87040FDF7DCBB70BD00002E2E2F4DE5
:1056E0006964646C6577617265732F54686972646C
:1056F0005F50617274792F4C7749502F7372632F0A
:10570000636F72652F6E657469662E63000000001A
:105710006E657469665F69737375655F7265706FD6
:105720007274733A20696E76616C6964206E657478
:1057300069660000417373657274696F6E2022257B
:105740007322206661696C6564206174206C696EE7
:105750006520256420696E2025730A006FF00B0018
:10576000704700002DE9F84F4FF000091D4616461E
:105770000C008246C84600D1114C06B9104E05B93E
:105780000F4DACB1206898B100274A4631465046CB
:10579000FFF762FF424629465046FFF7F0FE002F12
:1057A00004D16A4621465046FFF7F4FEBDE8F88F63
:1057B00001276A4621465046FFF7ECFEE5E7000068
:1057C000ECD3000801498860704700008400002085
:1057D00058B190F82D10CA070ED001F0FE0180F8E4
:1057E0002D10090708D5FCF76BBE04A340F29B32CD
:1057F0000FA117A0FCF792BC704700002E2E2F4D72
:105800006964646C6577617265732F54686972644A
:105810005F50617274792F4C7749502F7372632FE8
:10582000636F72652F6E657469662E6300000000F9
:105830006E657469665F7365745F646F776E3A2036
:10584000696E76616C6964206E657469660000003B
:10585000417373657274696F6E202225732220660E
:1058600061696C6564206174206C696E65202564D3
:1058700020696E2025730A00002800D0C16170479E
:1058800058B190F82D104A070ED501F0FB0180F8B1
:105890002D10C169002907D0084704A340F2064231
:1058A0000FA118A0FCF73ABC704700002E2E2F4D18
:1058B0006964646C6577617265732F54686972649A
:1058C0005F50617274792F4C7749502F7372632F38
:1058D000636F72652F6E657469662E630000000049
:1058E0006E657469665F7365745F6C696E6B5F6427
:1058F0006F776E3A20696E76616C6964206E6574AC
:1059000069660000417373657274696F6E202225A9
:105910007322206661696C6564206174206C696E15
:105920006520256420696E2025730A0010B50400E7
:1059300012D094F82D00410717D440F0040084F8E9
:105940002D0003212046FFF7A9FEE16900290CD0B4
:105950002046BDE810400847BDE8104003A34FF4BF
:1059600078720FA117A0FCF7D9BB10BD2E2E2F4DBA
:105970006964646C6577617265732F5468697264D9
:105980005F50617274792F4C7749502F7372632F77
:10599000636F72652F6E657469662E630000000088
:1059A0006E657469665F7365745F6C696E6B5F7555
:1059B000703A20696E76616C6964206E6574696600
:1059C00000000000417373657274696F6E202225B8
:1059D0007322206661696C6564206174206C696E55
:1059E0006520256420696E2025730A0050B190F867
:1059F0002D10CA070DD141F0010180F82D100321AF
:105A0000FFF74CBE03A34FF454720FA115A0FCF78F
:105A100085BB70472E2E2F4D6964646C657761726B
:105A200065732F54686972645F50617274792F4C8A
:105A30007749502F7372632F636F72652F6E657491
:105A400069662E63000000006E657469665F7365A9
:105A5000745F75703A20696E76616C6964206E655A
:105A600074696600417373657274696F6E202225D4
:105A70007322206661696C6564206174206C696EB4
:105A80006520256420696E2025730A00002200F03D
:105A900001B8000070B5A8B1B1F5803F26D2002949
:105AA00018D004898BB214FA81F5ADB29D421DD392
:105AB000057B2D0610D54268511A00F11002914263
:105AC00014D30CE00AA340F2DF1215A117A0FCF7D3
:105AD00025FB0BE0002070BD42B14268511A4160C5
